:100000000C944A180C947B180C947B180C947B1855
:100010000C947B180C947B180C947B180C947B1814
:100020000C947B180C947B180C947B180C947B1804
:100030000C947B180C947B180C947B180C947B18F4
:100040000C947B180C9431370C947B180C947B180F
:100050000C947B180C947B180C94AE4F0C9456A304
:100060000C947B180C94104F0C947B180C947B18F8
:100070000C947B180C947B180C947B180C947B18B4
:100080000C947B180C947B180C947B180C947B18A4
:100090000C947B180C947B180C947B180C947B1894
:1000A0000C947B180C947B180C947B180C947B1884
:1000B0000C947B180C947B180C947B180C947B1874
:1000C0000C947B180C947B180C947B180C947B1864
:1000D0000C947B180C947B180C947B180C947B1854
:1000E0000C947B18084AD73B3BCE016E84BCBFFD05
:1000F000C12F3D6C74319ABD56833DDA3D00C77FF8
:1001000011BED9E4BB4C3E916BAAAABE0000008090
:100110003F05A84CCDB2D44EB93836A9020C50B91F
:10012000918688083CA6AAAA2ABE000000803F004B
:100130000C94999A0C946BA90C94F4940C94BD941F
:100140000C94CEA90C946B9F0C948DBA0C9461A95D
:100150000C943F9F0C9402950C9449C00C946396A8
:100160000C9459940C94E79E0C94EA940C94621E9F
:100170000C9416AB0C940C1F0C94E2940C94EB9F13
:100180000C94CA310C947BA50C94D99F0C946C9858
:100190000C94D2940C94FF9F0C943F260C94CB9417
:1001A0000C94D19F0C94479C0C94E19F0C948F9AD3
:1001B0000C9418A00C9476C00C94C11E0C94FD9461
:1001C0000C9440A00C948B240C942CA00C94C394FD
:1001D0000C9458940C94611E0C949BBC0C94CF947A
:1001E0000C9474B10C9455250C94C79F0C94F09406
:1001F0000C94A8BE0C94569F0C9422A00C94509F73
:100200000C94F59F0C9413AF0C944EB20C94B39FC6
:100210000C9472940C94609C0C94FE940C940EA01C
:100220000C94029F0C94C7940C94D8940C94F7AF40
:100230000C940D620C948CA70C94DC940C9466A71F
:100240000C94609F0C9478A70C94E9AD0C94A07466
:100250000C94A69F0C9466BD0C9436A00C948398C5
:100260000C94AE9F0C94449F0C94E6940C94BD9F08
:100270000C94F8940C94661F4E414E494E495459C3
:10028000494E46CDCCCC3D0AD7233C17B7D1387761
:10029000CC2B329595E6241FB14F0A000020410077
:1002A00000C84200401C4620BCBE4CCA1B0E5AAEC1
:1002B000C59D74434F4D4D554E49434154494F4E92
:1002C0000044525952554E004552524F5253004924
:1002D0004E464F004543484F0040012C0173012218
:1002E00001AB011801F3010E0148020401AC02FA4E
:1002F000002A03F000C303E6008004DC006D05D291
:10030000006C06C800C707BE007009B4006D0BAAD8
:1003100000CB0DA000CF138C00F21B7800E9246401
:1003200000142E50009C353C00B83A2800A03D1423
:10033000000B3F000053544F505045442E200050B6
:1003400072696E7465722073746F70706564206476
:10035000756520746F206572726F72732E20466906
:100360007820746865206572726F7220616E6420F7
:10037000757365204D39393920746F207265737437
:100380006172742E202854656D7065726174757287
:10039000652069732072657365742E20536574201F
:1003A0006974206166746572207265737461727419
:1003B000696E67290A004E6F204C696E65204E7584
:1003C0006D626572207769746820636865636B731A
:1003D000756D2C204C617374204C696E653A200059
:1003E0004E6F20436865636B73756D207769746821
:1003F000206C696E65206E756D6265722C204C6193
:100400007374204C696E653A2000636865636B7392
:10041000756D206D69736D617463682C204C617318
:1004200074204C696E653A20004C696E65204E75EB
:100430006D626572206973206E6F74204C617374F5
:10044000204C696E65204E756D6265722B312C20D3
:100450004C617374204C696E653A20004D31313027
:10046000004D3331004D383420582059205A204552
:100470000053442072656164206572726F720A00D5
:10048000446F6E65207072696E74696E672066696C
:100490006C650A0020496E76616C69642065787429
:1004A000727564657220000000000000000000000A
:1004B00000000000000243000052430000C8422038
:1004C0006E6F7420656E74657265642E0A000A4D45
:1004D0006561737572656420706F696E74733A0A32
:1004E000005A206F66667365743A20004E756D2061
:1004F000582C593A20322C320A0044656C657469D4
:100500006F6E206661696C65642C2046696C653A83
:10051000200046696C652064656C657465643A000A
:100520006F70656E206661696C65642C2046696C2D
:10053000653A2000202F0020403A00486561746928
:100540006E6720646F6E652E005072696E74696EFE
:10055000672E2E2E0020573A0048656174696E6739
:100560002E2E2E003344205072696E7465722072F4
:10057000656164792E00205A3A0020593A002043E0
:100580006F756E7420583A0020453A00205A3A00A0
:1005900020593A00583A004361703A454D45524758
:1005A000454E43595F5041525345523A300A004339
:1005B00061703A434153455F4C494748545F42524A
:1005C000494748544E4553533A300A004361703A04
:1005D000544F47474C455F4C49474854533A300ABB
:1005E000004361703A534F4654574152455F504F54
:1005F0005745523A300A004361703A4C4556454CD3
:10060000494E475F444154413A310A004361703AD0
:100610005A5F50524F42453A310A004361703A41A5
:1006200055544F4C4556454C3A300A004361703A98
:100630005052494E545F4A4F423A310A004361706A
:100640003A50524F47524553533A300A0043617073
:100650003A4155544F5245504F52545F54454D50B6
:100660003A310A004361703A454550524F4D3A3194
:100670000A004649524D574152455F4E414D453A59
:100680004D61726C696E20312E312E3420284769FD
:10069000746875622920534F555243455F434F4458
:1006A000455F55524C3A68747470733A2F2F6769DE
:1006B000746875622E636F6D2F4D61726C696E4642
:1006C00069726D776172652F4D61726C696E205031
:1006D000524F544F434F4C5F56455253494F4E3A39
:1006E000312E30204D414348494E455F54595045C5
:1006F0003A3344205072696E7465722045585452E2
:10070000554445525F434F554E543A312055554953
:10071000443A63656465326132662D343161322D4D
:10072000343734382D396231322D63353563363202
:100730006633363766660A00205A00205900580092
:1007400020204D61783A2000205A0020590058009E
:1007500020204D696E3A20004F6E20004F666600E3
:10076000536F667420656E6473746F70733A200003
:1007700020643A0020693A0020703A0023646566DC
:10078000696E65202044454641554C545F4B6420BA
:100790000023646566696E65202044454641554CDA
:1007A000545F4B69200023646566696E65202044B0
:1007B000454641554C545F4B702000504944204100
:1007C00075746F74756E652066696E6973686564AB
:1007D000212050757420746865206C617374204BFF
:1007E000702C204B6920616E64204B6420636F6E17
:1007F0007374616E74732066726F6D2062656C6FC6
:100800007720696E746F20436F6E666967757261D9
:1008100074696F6E2E680A00504944204175746FE8
:1008200074756E65206661696C6564212074696DFC
:10083000656F75740A00504944204175746F747572
:100840006E65206661696C6564212054656D706514
:1008500072617475726520746F6F20686967680AC9
:1008600000204B643A2000204B693A2000204B7056
:100870003A20000A20436C61737369632050494435
:10088000200A002054753A2000204B753A200020A1
:100890006D61783A2000206D696E3A200020643A3C
:1008A000200020626961733A20004F66660A0046A4
:1008B000616465204865696768742000426564204A
:1008C0004C6576656C696E6720004661696C65648D
:1008D00020746F20656E61626C6520426564204CF7
:1008E0006576656C696E670A004D657368204265C0
:1008F00064204C6576656C20646174613A0A004D31
:1009000065736820706F696E742063616E6E6F74BA
:10091000206265207265736F6C7665640A004D34E1
:10092000323120696E636F72726563742070617218
:10093000616D657465722075736167650A00457243
:10094000723A20546F6F206661722100546F6F20DD
:100950006661722066726F6D207265666572656E83
:10096000636520706F696E740A004F666673657404
:1009700073206170706C6965640047322F473320C3
:1009800062616420706172616D65746572730A00E2
:10099000536C6565702E2E2E0059206F7574206F74
:1009A000662072616E67652028312D32292E0A007B
:1009B00058206F7574206F662072616E67652028FD
:1009C000312D32292E0A004D6573682070726F62D6
:1009D000696E6720646F6E652E0A005374617274CD
:1009E000206D6573682070726F62696E6720776929
:1009F000746820224732392053312220666972738D
:100A0000742E0A004732380A473239205332004DDB
:100A100065736820626564206C6576656C696E67D5
:100A200020686173206E6F20646174612E0A005328
:100A3000746174653A200053206F7574206F6620CE
:100A400072616E67652028302D35292E0A00205AE4
:100A50003A200020593A200042656420583A20008C
:100A60004D65736820706F696E742063616E6E6F80
:100A700074206265207265736F6C7665640A00335A
:100A800044205072696E7465722072656164792EBB
:100A900000526573756D696E67207072696E7400BF
:100AA0005761697420666F7220757365722E2E2EE1
:100AB000004E6F206D6F76652E00456E642066696E
:100AC0006C65206C6973740A00426567696E206604
:100AD000696C65206C6973740A00534420707269F4
:100AE0006E74696E67206279746520004E6F7420A1
:100AF0005344207072696E74696E670A00256973C9
:100B00000025696D20256973002569682025696DB8
:100B10002025697300256964202569682025696D91
:100B20002025697300256979202569642025696875
:100B30002025696D20256973005072696E742074D8
:100B4000696D653A200050726F7465637465642046
:100B500050696E0A0048656174696E672E2E2E001A
:100B60003344205072696E746572207265616479D5
:100B70002E006F666600D402CF02C802C102B30223
:100B800044454255473A004D3131332053006F6B95
:100B9000003344205072696E746572204F66662E71
:100BA000002F2F20004D31343520533C696E646591
:100BB000783E206F7574206F662072616E676520C5
:100BC00028302D31290A0053657474696E672054EA
:100BD000726176656C20416363656C6572617469EE
:100BE0006F6E3A200053657474696E6720526574A5
:100BF0007261637420416363656C65726174696FCF
:100C00006E3A200053657474696E67205072696E85
:100C10007420416363656C65726174696F6E3A201C
:100C20000053657474696E67205072696E74206138
:100C30006E642054726176656C20416363656C65F7
:100C4000726174696F6E3A20000001161739FF1344
:100C5000191A1812FF1D271C26FFFFFF2C0CFFFF7F
:100C6000FF373836FFFF2C4404FF43FFFFFFFFFF31
:100C7000FF6C636420636F6E7472617374207661BD
:100C80006C75653A200043290A0061626C65642036
:100C9000286D696E2074656D702000436F6C642050
:100CA00065787472756465732061726520003A20FE
:100CB000007A5F6D696E3A20202D3230207A5F6DA8
:100CC00061783A20203230005A204F66667365748E
:100CD00020004E6F2063617365206C696768740A39
:100CE0000041637469766520457874727564657235
:100CF0003A2000556E6B6E6F776E20636F6D6D617D
:100D00006E643A202200526573656E643A20006F6B
:100D10006B0020746F6F206C6F6E67206578747243
:100D20007573696F6E2070726576656E7465640A9E
:100D30000020636F6C6420657874727573696F6EE0
:100D40002070726576656E7465640A0062757379E9
:100D50003A2070617573656420666F7220696E70E9
:100D600075740A00627573793A20706175736564F1
:100D700020666F7220757365720A00627573793A26
:100D80002070726F63657373696E670A004B494C1C
:100D90004C20636175736564206279204B494C4C2B
:100DA00020627574746F6E2F70696E0A004B494C27
:100DB0004C2063617573656420627920746F6F20C5
:100DC0006D75636820696E61637469766520746906
:100DD0006D65202D2063757272656E7420636F6D72
:100DE0006D616E643A2000000002430000000000C4
:100DF000000000000048420000484200008040001F
:100E000000000000000243000052430000C84201FD
:100E1000FFFF7C3C3E5E2B3D3F2F5B5D3B2C2A223F
:100E20005C004572726F722077726974696E672018
:100E3000746F20454550524F4D210A00290A002069
:100E400062797465733B2063726320005365747428
:100E5000696E67732053746F7265642028002028C0
:100E600063616C63756C6174656429210A002021DB
:100E70003D2000454550524F4D20435243206D695F
:100E8000736D61746368202D202873746F726564BC
:100E9000292000290A002062797465733B2063725F
:100EA0006320002073746F726564207365747469C5
:100EB0006E677320726574726965766564202800B8
:100EC000204D61726C696E3D563132290A00284509
:100ED0004550524F4D3D00454550524F4D2076658F
:100EE0007273696F6E206D69736D61746368200041
:100EF00048617264636F6465642044656661756C03
:100F0000742053657474696E6773204C6F616465F7
:100F1000640A00B80B0000B80B000064000000B8C1
:100F20000B000000009643000096430000A0400024
:100F300000C8410000A0420000A0420000C84300D9
:100F400000BC4220204D383531205A005A2D5072B5
:100F50006F6265204F666673657420286D6D293A4F
:100F60000A0020204D3235302043004C43442043BA
:100F70006F6E74726173743A0A0020440020490055
:100F800020204D3330312050005049442073657487
:100F900074696E67733A0A002046002042002048B8
:100FA0000020204D3134352053004D617465726945
:100FB000616C2068656174757020706172616D6527
:100FC000746572733A0A00205A00205900202047A5
:100FD0003239205333205800205A0020204D34321B
:100FE000302053004D65736820426564204C65765F
:100FF000656C696E673A0A00205A0020590020206B
:101000004D323036205800486F6D65206F6666732C
:1010100065743A0A00204500205A002059002058E3
:101020000020420020540020204D32303520530053
:10103000416476616E6365643A20533C6D696E5F0E
:1010400066656564726174653E20543C6D696E5FCF
:1010500074726176656C5F66656564726174653E25
:1010600020423C6D696E5F7365676D656E745F7479
:10107000696D655F6D733E20583C6D61785F78796E
:101080005F6A65726B3E205A3C6D61785F7A5F6A79
:1010900065726B3E20453C6D61785F655F6A657285
:1010A0006B3E0A0020540020520020204D32303484
:1010B000205000416363656C65726174696F6E20D6
:1010C00028756E6974732F7332293A20503C707200
:1010D000696E745F616363656C3E20523C72657437
:1010E000726163745F616363656C3E20543C74722B
:1010F0006176656C5F616363656C3E0A0020450044
:10110000205A0020590020204D3230312058004D07
:101110006178696D756D20416363656C657261749A
:10112000696F6E2028756E6974732F7332293A0ABD
:1011300000204500205A0020590020204D32303335
:101140002058004D6178696D756D20666565647223
:10115000617465732028756E6974732F73293A0A58
:1011600000204500205A0020590020204D3932200F
:10117000580053746570732070657220756E6974C1
:101180003A0A0020204D3230302044300A0020201E
:101190004D3230302044002044697361626C6564D4
:1011A0000A0046696C616D656E74207365747469BC
:1011B0006E67733A0020204D3134392043203B20A4
:1011C000556E69747320696E2043656C736975731D
:1011D0000A002020473231202020203B20556E6914
:1011E000747320696E206D6D0A007A5F6D696E3AC6
:1011F0002000795F6D696E3A2000785F6D61783A02
:1012000020005265706F7274696E6720656E64733A
:10121000746F70207374617475730A0020746F6F3B
:10122000206C6F6E6720657874727573696F6E20BD
:1012300070726576656E7465640A0020636F6C6415
:1012400020657874727573696F6E2070726576654B
:101250006E7465640A0024F4D43050C38E20C2A298
:101260004017828B7011127A910D816CD90AA86196
:10127000E108C7586607615143061E4B5D05C1452D
:10128000A7041A411104093D98037139310340360E
:10129000DB0265339102D4305402802E1D02632C90
:1012A000EE01752AC501B028A001102781018F2504
:1012B00064012B244B01E0223401AC211F018D205D
:1012C0000D01801FFC00841EED00971DDF00B81C7F
:1012D000D200E61BC600201BBC00641AB200B21983
:1012E000A8000A19A0006A189900D11791004017A8
:1012F0008B00B516840031167E00B31579003A15BF
:101300007300C7146F0058146A00EE136600881348
:10131000630025135E00C7125B006C1257001512A4
:101320005400C111510070114F0021114B00D61013
:1013300049008D1047004610440002104200C00FC3
:101340004000800F3E00420F3C00060F3B00CB0EDA
:101350003800930E37005C0E3500270E3400F30D75
:101360003200C10D3100900D3000600D2E00320DA5
:101370002D00050D2C00D90C2B00AE0C2900850C7E
:1013800029005C0C2700350C27000E0C2600E80B0A
:101390002400C40B2400A00B23007D0B23005A0B58
:1013A0002100390B2100180B2000F80A1F00D90A70
:1013B0001E00BB0A1E009D0A1D00800A1D00630A54
:1013C0001C00470A1B002C0A1B00110A1A00F7090F
:1013D0001A00DD091900C4091900AB0919009209A6
:1013E00017007B091800630917004C09160036091D
:1013F0001600200916000A091500F5081500E00876
:101400001400CC081400B8081400A40814009008B4
:1014100013007D0812006B081300580812004608DC
:1014200012003408110023081100120811000108ED
:101430001100F0071000E0071000D0071000C007EF
:101440001000B0070F00A107100091070E008307DE
:101450000F0074070F0065070E0057070E004907BD
:101460000E003B070D002E070E0020070D0013078E
:101470000D0006070D00F9060C00ED060D00E00654
:101480000C00D4060C00C8060C00BC060C00B0060C
:101490000C00A4060B0099060C008D060B008206BA
:1014A0000B0077060B006C060B0061060A0057065E
:1014B0000B004C060A0042060A0038060A002E06F7
:1014C0000A0024060A001A060A0010060900070688
:1014D0000A00FD050900F4050900EB050900E20515
:1014E0000900D9050900D0050900C7050900BE0596
:1014F0000900B5050800AD050800A50509009C0513
:101500000800940508008C050800840508007C0587
:101510000800740508006C050700650508005D05F6
:101520000700560508004E0507004705070040055F
:10153000080038050700310507002A0507002305C4
:1015400007001C050600160507000F050700080523
:10155000060002050700FB040600F5040700EE0480
:101560000600E8040600E2040700DB040600D504D8
:101570000600CF040600C9040600C3040600BD042B
:101580000600B7040600B1040500AC040600A6047A
:101590000600A00405009B040600950405009004C5
:1015A00006008A04050085040500800406007A040C
:1015B000050075040500700405006B040500660451
:1015C0000500610405005C04050057040500520491
:1015D00005004D04050048040500430405003E04D1
:1015E00004003A04050035040500300404002C040E
:1015F000050027040400230405001E0404001A0447
:10160000040016040500110404000D04040009047C
:1016100005000404040000040400FC030400F803B3
:101620000400F4030400F0030400EC030400E803E6
:101630000400E4030400E0030400DC030400D80316
:101640000400D4030400D0030400CC030400C80346
:101650000300C503030024F404D9201BC40C5C0E52
:101660009804C4095F0265077101F405F900FB04E1
:10167000B30048048700C103690058035500030301
:101680004500BE023A008402310053022A002902BA
:10169000250004022000E4011C00C8011900AF016C
:1016A00017009801140084011300710110006101FA
:1016B000100051010E0043010D0036010B002B01FB
:1016C0000B0020010B00150109000C0109000301AA
:1016D0000800FB000800F3000800EB000700E4002E
:1016E0000600DE000600D8000600D2000600CC008E
:1016F0000500C7000500C2000500BD000400B900D8
:101700000400B5000400B1000400AD000400A9000D
:101710000400A5000300A20003009F0004009B003A
:10172000030098000300950002009300030090005E
:1017300003008D0002008B00030088000200860079
:10174000020084000300810002007F0002007D008F
:1017500002007B00020079000200770001007600A1
:1017600002007400020072000100710002006F00AC
:1017700002006D0001006C0002006A0001006900B7
:1017800002006700010066000100650001006400BE
:1017900002006200010061000100600001005F00C2
:1017A00002005D0001005C0001005B0001005A00C6
:1017B00001005900010058000100570001005600C7
:1017C00001005500010054000100530000005300C7
:1017D00001005200010051000100500001004F00C3
:1017E00001004E0000004E0001004D0001004C00C1
:1017F00001004B0000004B0001004A0001004900BD
:1018000001004800000048000100470001004600B8
:1018100000004600010045000000450001004400B2
:1018200001004300000043000100420000004200AC
:1018300001004100000041000100400001003F00A4
:1018400000003F0001003E0000003E0001003D009E
:1018500000003D0001003C0000003C0000003C0096
:1018600001003B0000003B0001003A0000003A008C
:101870000100390000003900010038000000380084
:10188000000038000100370000003700010036007A
:101890000000360000003600010035000000350071
:1018A0000000350001003400000034000000340066
:1018B000010033000000330000003300010032005B
:1018C0000000320000003200010031000000310051
:1018D0000000310001003000000030000000300046
:1018E00001002F0000002F0000002F0000002F003B
:1018F00001002E0000002E0000002E0001002D002F
:1019000000002D0000002D0000002D0001002C0023
:1019100000002C0000002C0000002C0001002B0017
:1019200000002B0000002B0000002B0001002A000B
:1019300000002A0000002A0000002A0001002900FF
:1019400000002900000029000000290000002900F3
:1019500001002800000028000000280000002800E6
:1019600000002800010027000000270000002700D9
:1019700000002700000027000100260000002600CC
:1019800000002600000026000000260001002500BF
:1019900000002500000025000000250000002500B3
:1019A00000002500010024000000240000002400A5
:1019B0000000240000002400010023000000230098
:1019C000000023000000230000002300000023008B
:1019D000000023000100220000002200000022007D
:1019E000000022000000220000002200010021006F
:1019F0000000210000002100000021000000210063
:101A00000000210000002100010020000000200053
:101A10000000200000002000000020000000200046
:101A2000000020000000200001001F0000001F0037
:101A300000001F0000001F0000001F0000001F002A
:101A400000001F0001001E0000001E0000001E001C
:101A500000001E0000004D383420582059205A2024
:101A600045006265640A002C2073797374656D20EB
:101A700073746F7070656421204865617465725F6E
:101A800049443A2000544845524D414C2052554E4D
:101A90004157415900546865726D616C2052756EF2
:101AA000617761790048656174696E672066616974
:101AB0006C65640048656174696E67206661696C75
:101AC0006564004572723A204D494E54454D5000B0
:101AD0004D494E54454D5020747269676765726573
:101AE00064004572723A204D415854454D50004DA6
:101AF000415854454D50207472696767657265643A
:101B000000000000000000000000000000000000D5
:101B100000000000000000000000000000000000C5
:101B200000000000000000000000000000000000B5
:101B30000000000000000000000007C000000000DE
:101B4000000000000000000037007FBC0000000023
:101B50000000000000000000FFFFFFBF8000000049
:101B60000000000000000007FFFFFF7FC000000032
:101B7000000000000000001FEFFFFF7FFF000000DB
:101B8000000000000000003FEFFFFFFFFFE000004B
:101B900000000000000000FFEFFFFFFFE03000004A
:101BA00000000000000003FFFFFFFFFFF000000047
:101BB00000000000000007FFFFFFFFFFF000000033
:101BC00000000000000037FFFFFFFF7FF000000073
:101BD000000000000017F7FFEFFFFF7FF00000009C
:101BE00000000000001FF7FFEFFFFF7FF000000084
:101BF00000000000000FF7FFFFFFFFBFF80000002C
:101C000000000000000FF7FFF7FFFFBFF800000023
:101C100000000000000FFFFFF7FFFFBFFC00000007
:101C200000000000000FFBFFF7FFFFBFFC000000FB
:101C300000000000000FFBFFFFFFFFFFFC000000A3
:101C400000000000008FFDFFFBFFFFDFF800000039
:101C50000000000000FFFCFFFBFFFFBFF6000000DC
:101C600000000000047FFEFFFBFFFF1FEF000000ED
:101C700000000000067FFF25FBFFFCEFDF80000077
:101C80000000000007FFFF3E70FFF0F3DFC0000020
:101C90000000000003FFFC3F800F807DBFC00000FC
:101CA0000000000001FFF81FD80000FFBF80000007
:101CB0000000000001FFE00FDF0001FF1F800000B7
:101CC00000000000007FC00FFF8003FE1F00000027
:101CD00000000000003F800FBF8003F83F000000BD
:101CE00000000000003F000F9FC007C03E00000042
:101CF00000000000001C001F00C00FC07E0000009C
:101D000000000000000000000000000000000000D3
:101D100000000000000000000000000000000000C3
:101D200000000000000000000000000000000000B3
:101D300000000000000000000000000000000000A3
:101D400000000000038C70E0E0CC1C1807C000000D
:101D500000000000039C70F0F1CE1C3C0FE000007E
:101D600000000000039C71F0F1CE1C3C1FF000004D
:101D700000000000039C71F0F9CE1C7E3C7800004E
:101D800000000000039C71F8FDCFFC7E3838000095
:101D900000000000019EE3B8FFCFFC673818000088
:101DA0000000000001DEE3B8EFCFFCE738380000A8
:101DB0000000000001FFC3FCE7CE1CFF3C38000020
:101DC0000000000000F7C7FCE3CE1CFF9FF00000FE
:101DD0000000000000F3871EE3CE1DE38FF000003B
:101DE000000000000073870EE1CE1DC3C7C00000D5
:101DF00000000000000000000000000000000000E3
:101E000000000000000000000000000000000000D2
:101E100000000000000000000000000000000000C2
:101E200000000000000000000000000000000000B2
:101E300000000000000000000000000000000000A2
:101E40000000000000000000000000000000000092
:101E50000000000000000000000000000000000082
:101E60000000000000000000000000000000000072
:101E70000000000000000000000000000000000062
:101E80000000000000000000000000000000000052
:101E90000000000000000000000000000000000042
:101EA0000000000000000000000000000000000032
:101EB0000000000000000000000000000000000022
:101EC0000000000000000000000000000000000012
:101ED0000000000000000000000000000000000002
:101EE00000000000000000000000000000000000F2
:101EF00000000000000000000000000000000000E2
:101F00000025753A2530327500253032753A253076
:101F100032750025756420253032753A25303275CA
:101F2000000920007F80FFC0FFC0FFC07F807F804E
:101F3000FFC0FFC0FFC03F001E000C007F80FFC03D
:101F4000FFC0FFC07F807F80FFC0FFC0FFC03F0099
:101F50001E000C004732382058590A00416476614F
:101F60006E63656400517569636B205365747469B1
:101F70006E6773004C6576656C20626564004E6F19
:101F80002053442063617264005072696E7420466D
:101F9000696C650053746F70207072696E740052C2
:101FA0006573756D65207072696E7400506175732C
:101FB00065207072696E74004E6F7A7A6C65004E9F
:101FC0006F7A7A6C6500537065656400537065655F
:101FD00064006261636B005265646F204C657665D6
:101FE0006C2057697A617264004261636B20746F80
:101FF000204D61696E204D656E7500476F20746FCE
:10200000206E65787420636F726E65720062616322
:102010006B006E657874006261636B006E65787446
:10202000006261636B00496E697469616C697A6909
:102030006E672E2E2E00473238006261636B0047B8
:1020400030205A353000473238205A004730205A65
:10205000353000473238205A005261697365204597
:10206000787472756465722031306D6D00507265E0
:10207000686561740052656D6F76652046696C61B4
:102080006D656E74004164642046696C616D656EB7
:1020900074006261636B00436F6F6C646F776E00F6
:1020A00050726568656174004D383400446973612D
:1020B000626C65207374657070657273004368614B
:1020C0006E67652046696C616D656E74004D6F7654
:1020D00065006261636B00596573006261636B0048
:1020E000466163746F727920526573657400536141
:1020F00076652053657474696E670054656D70650C
:10210000726174757265006261636B0047323800FA
:10211000486F6D652058595A00457874727564652A
:1021200072004D6F7665205A004D6F76652059001C
:102130004D6F76652058006261636B005072656870
:1021400065617420504C4120636F6E6600504944B5
:102150002D44005049442D44005049442D4900501D
:1021600049442D49005049442D50005049442D50B8
:10217000004E6F7A7A6C65004E6F7A7A6C650062F9
:1021800061636B00536176652073657474696E6773
:10219000004E6F7A7A6C65004E6F7A7A6C650062D9
:1021A00061636B0043616E6E6F7420656E7465725F
:1021B000207375626469723A2000022E2E006261FB
:1021C000636B00436172642072656D6F76656400B5
:1021D0004361726420696E73657274656400FFE028
:1021E000FFD11000FFFEFFD0FFE0FFC1FFD1E240B2
:1021F000A0C8A6A22FF800238127AC00AFFF64A5DA
:10220000FF64FF64A4FFD0FFFE000021002400272C
:10221000002A002D003000330001010000040107F6
:10222000010A0100002200250028002B002E0031A9
:1022300000340002010000050108010B010000202C
:10224000002300260029002C002F0032000001008E
:102250000003010601090105050505070508080831
:1022600008020202020A0A08080404040401010127
:10227000010101010103030303030303030407072F
:10228000070C0C0C0C0C0C0C0C02020202060606CD
:1022900006060606060B0B0B0B0B0B0B0B010210B5
:1022A0002020080810204010204080020102010870
:1022B0000402010102040810204080804020100820
:1022C0000402018004020180402010080402010879
:1022D00004020101020408102040800102040810D9
:1022E00020408000000A0B02090C0D0E08070304B1
:1022F00001000000000000000000000000000000DD
:1023000000000000000000000000000000000012BB
:10231000111000000000000000000000000000009C
:102320000000000000000000002020506C616E6E74
:10233000657242756666657242797465733A20000B
:102340002046726565204D656D6F72793A200043B5
:102350006F6D70696C65643A204A756C2032352067
:10236000323032330A00207C20417574686F723A33
:1023700020286E6F6E652C2064656661756C742014
:10238000636F6E666967290A00323031372D303746
:102390002D30342031323A303000204C61737420BB
:1023A000557064617465643A2000312E312E340A10
:1023B000004D61726C696E0020536F6674776172B4
:1023C000652052657365740A002057617463686400
:1023D0006F672052657365740A002042726F776ED2
:1023E000206F75742052657365740A0020457874F7
:1023F00065726E616C2052657365740A00506F7768
:10240000657255700A0073746172740A00657272A5
:102410006F722077726974696E6720746F206669C5
:102420006C650A00205A3A0020593A0020583A00B8
:10243000656E6473746F7073206869743A20004429
:102440006F6E6520736176696E672066696C652EB4
:102450000A004D32390057726974696E6720746FD3
:102460002066696C653A20006F70656E2066616950
:102470006C65642C2046696C653A20006F70656E4F
:10248000206661696C65642C2046696C653A2000A1
:1024900046696C652073656C65637465640A002029
:1024A00053697A653A200046696C65206F70656EE5
:1024B00065643A20006F70656E206661696C6564C2
:1024C0002C2046696C653A20002066696C653A20CC
:1024D000004E6F7720002220706F73002220706101
:1024E00072656E743A2200535542524F5554494E0C
:1024F000452043414C4C207461726765743A220058
:10250000747279696E6720746F2063616C6C2073DC
:1025100075622D67636F64652066696C65732077EB
:1025200069746820746F6F206D616E79206C6576B8
:10253000656C732E204D4158206C6576656C206962
:10254000733A0043616E6E6F74206F70656E207316
:10255000756264697220006175746F25692E670069
:1025600053442063617264206F6B0A006F70656E64
:10257000526F6F74206661696C65640A00766F6CD7
:10258000756D652E696E6974206661696C65640A93
:1025900000534420696E6974206661696C0A004DBD
:1025A0003234004D323320257300656E71756575C8
:1025B00065696E672022006563686F3A0050726932
:1025C0006E7465722068616C7465642E206B696C32
:1025D0006C28292063616C6C6564210A0045727265
:1025E0006F723A0000060900FE070192032120FFE6
:1025F000FF08FF07FF0000000600000107070602B2
:102600000080808080800080030202060105A0A077
:102610000507070600005050F850F850500507070E
:102620000600002078A07028F020050707060000AB
:10263000C0C810204098180507070600006090A049
:1026400040A89068020303060104C0408003070706
:10265000060100204080808040200307070601001B
:102660008040202020408005050506000120A8703C
:10267000A8200505050600012020F82020020303FC
:102680000602FFC04080050101060003F8020202B5
:10269000060200C0C00505050600010810204080A4
:1026A0000507070600007088888888887003070778
:1026B00006010040C040404040E00507070600001A
:1026C000708808708080F8050707060000F8102061
:1026D000100808F005070706000010305090F810A9
:1026E00010050707060000F880F008088870050745
:1026F00007060000708080F08888700507070600D4
:1027000000F8081020202020050707060000708828
:102710008870888870050707060000708888780828
:102720000870020505060200C0C000C0C00206060F
:102730000602FFC0C000C04080040707060000106A
:10274000204080402010050303060002F800F80432
:10275000070706010080402010204080050707067B
:102760000000708808102000200507070600007090
:10277000880868A8A870050707060000708888F810
:10278000888888050707060000F08888F08888F0A8
:10279000050707060000708880808088700507079D
:1027A000060000F08888888888F005070706000082
:1027B000F88080F08080F8050707060000F8808028
:1027C000F0808080050707060000708880B8888840
:1027D00070050707060000888888F8888888010740
:1027E0000706020080808080808080050707060041
:1027F0000038101010109060050707060000889040
:10280000A0C0A09088050707060000808080808017
:1028100080F805070706000088D8A88888888805FA
:1028200007070600008888C8A89888880507070653
:10283000000070888888888870050707060000F007
:102840008888F080808005070706000070888888E7
:10285000A89068050707060000F08888F0A0908817
:10286000050707060000788080700808F005070754
:10287000060000F820202020202005070706000081
:1028800088888888888870050707060000888888F7
:10289000888850200507070600008888888888A84F
:1028A00050050707060000888850205088880507D3
:1028B00007060000888888502020200507070600AA
:1028C00000F80810204080F8030707060100E080A8
:1028D00080808080E005050506000180402010080A
:1028E000030707060100E02020202020E005030365
:1028F000060004205088050101060000F8020202CB
:1029000006020580400505050600007008788878F5
:102910000507070600008080B0C88888F005050517
:102920000600007080808870050707060000080810
:1029300068988888780505050600007088F880701A
:102940000507070600003048E04040404005060605
:102950000600FF7088887808700507070600008069
:1029600080B0C88888880107070602008000808040
:102970008080800308080601FF200020202020A07E
:1029800040040707060000808090A0C0A0900307C5
:1029900007060100C04040404040E0050505060034
:1029A00000D0A8A8A8A8050505060000B0C888881A
:1029B00088050505060000708888887005060606EB
:1029C00000FFF08888F080800506060600FF788802
:1029D00088780808050505060000B0C880808005D5
:1029E000050506000070807008F004070706000067
:1029F0004040E040404030050505060000888888DA
:102A0000986805050506000088888850200505059A
:102A10000600008888A8A850050505060000885013
:102A20002050880506060600FF888888780870050B
:102A30000505060000F8102040F80307070601000E
:102A4000204040804040200107070602008080802F
:102A500080808080030707060100804040204040BE
:102A600080050202060002689000000006000000D7
:102A70000000060000000000060000000000060044
:102A8000000000000600000000000600000000003A
:102A90000600000000000600000000000600000024
:102AA0000000060000000000060000000000060014
:102AB000000000000600000000000600000000000A
:102AC00006000000000006000000000006000000F4
:102AD00000000600000000000600000000000600E4
:102AE00000000000060000000000060000000000DA
:102AF00006000000000006000000000006000000C4
:102B000000000600000000000600000000000600B3
:102B100000000000060000000000060000000000A9
:102B20000600000000000600000000000600000093
:102B30000000060000010707060200800080808078
:102B400080800507070600002070A8A0A870200557
:102B50000707060000304040E04050A80505050684
:102B60000000887050708805070706000088502014
:102B7000F820F8200107070602008080800080808E
:102B8000800508080600003048205050209060035F
:102B90000101060107A0050707060000F888B8B87C
:102BA000B888F8050707060001700878887800F8EB
:102BB0000505050600012850A0502805030306005E
:102BC00001F808080202020602064080050707060F
:102BD0000000F888A88898A8F8050101060006F802
:102BE00004040406000360909060050707060000D7
:102BF0002020F8202000F80405050600036090203E
:102C000040F0030505060003E020E020E002020298
:102C100006020640800508080600FF888888889814
:102C2000E88080050707060000789898781818183B
:102C3000020202060202C0C00202020602FF408037
:102C400003050506000340C04040E00507070600F5
:102C500001708888887000F8050505060001A050FD
:102C60002850A00507070600008890A858B8080853
:102C70000507070600008890B8489820380508081E
:102C8000060000C040C048D83808080507070600FD
:102C900000200020408088700508080600004020C1
:102CA000007088F888880508080600001020007069
:102CB00088F888880508080600002050007088F809
:102CC00088880508080600006890007088F88888E1
:102CD0000508080600005000708888F888880508F4
:102CE000080600002050207088F88888050707062D
:102CF00000003860A0B8E0A0B80508080600FF7022
:102D00008880808870206005080806000040200048
:102D1000F880F080F8050808060000081000F88028
:102D2000F080F8050808060000205000F880F080C8
:102D3000F80507070600005000F880F080F8030847
:102D400008060100804000E0404040E0030808061B
:102D50000100204000E0404040E003080806010078
:102D600040A000E0404040E0030707060100A0004B
:102D7000E0404040E0050707060000704848E8488A
:102D8000487005080806000068900088C8A8988860
:102D900005080806000040207088888888700508AB
:102DA00008060000102070888888887005080806CA
:102DB0000000205000708888887005080806000010
:102DC0006890007088888870050808060000500028
:102DD0007088888888700505050600018850205095
:102DE000880508080600FF1070A8A8A8A87040056C
:102DF0000808060000402088888888887005080830
:102E00000600001020888888888870050808060059
:102E10000020500088888888700508080600005047
:102E200000888888888870050808060000102088B7
:102E300050202020200509090600FFC040704848A6
:102E4000704040E00408080601FF609090A0909058
:102E5000E0800508080600004020007008788878A7
:102E6000050808060000102000700878887805081A
:102E700008060000205000700878887805080806C9
:102E80000000689000700878887805070706000041
:102E90005000700878887805080806000020502047
:102EA0007008788878050606060000D02878A0A863
:102EB000500506060600FF7080887020600508082F
:102EC0000600004020007088F880700508080600A1
:102ED000001020007088F8807005080806000020A7
:102EE00050007088F88070050707060000500070D9
:102EF00088F8807003080806010080400040C04048
:102F000040E003080806010020400040C04040E0C7
:102F100003080806010040A00040C04040E003074D
:102F200007060100A00040C04040E005070706007A
:102F300000A040A01078887005080806000068907E
:102F400000B0C88888880508080600004020007086
:102F5000888888700508080600001020007088889E
:102F60008870050808060000205000708888887066
:102F700005080806000068900070888888700507BA
:102F80000706000050007088888870050505060057
:102F9000012000F800200507070600FF1070A8A810
:102FA000A87040050808060000402000888888981E
:102FB00068050808060000102000888888986805C1
:102FC00008080600002050008888889868050707D0
:102FD000060000500088888898680509090600FFE7
:102FE000102000888888F808700407070601FFC0D1
:102FF0004060506040E00508080600FF50008888E7
:103000008878087000060900FE0000000000010931
:103010000008FE000005080806000040F0C8888887
:10302000987810050808060000C0F8888888888805
:10303000F80505050600012030F8302005080806CF
:1030400000002070F820202020E00509090600FF7C
:103050002070A8A8B8888870200509090600FFE03C
:1030600080C0B0A8283028280509090600FFF8A864
:103070008888888888A8F8050A0A0600FE2050502B
:10308000505088A8A8887003030306000340A0409E
:1030900076C049C011241FBECFEFD1E2DEBFCDBF45
:1030A00000E00CBF15E0A0E0B2E0E4E9F3EA01E0E3
:1030B0000BBF02C007900D92A637B107D9F725E1E3
:1030C000A6E7B5E001C01D92AF31B207E1F718E104
:1030D000C9E4D8E100E006C021970109802FFE0174
:1030E0000E9428D1C834D10780E00807A9F70E94C0
:1030F000C5C10C94B8D10C940000880F991F880F9B
:10310000991FFC01E55AF34F40815181628173811F
:10311000815B924FFC014083518362837383E09112
:10312000590CF0915A0C82899389A489B5898093AE
:10313000550C9093560CA093570CB093580C0895CF
:10314000CF93DF932FB7F894AC01440F551F440F72
:10315000551FFA01E55AF34F608171818281938195
:103160002FBFEA01C15CD24F0E9498C928813981E2
:103170004A815B810E94F7C9DF91CF9108958091C8
:103180005F0781111AC06091290270912A02072EEF
:10319000000C880B990B0E9498C99B01AC016091AF
:1031A0002D1170912E1180912F11909130110E944C
:1031B00091C9881F8827881F089580E008954F923D
:1031C0005F926F927F928F929F92AF92BF92EF9297
:1031D000FF920F931F93CF93DF93CFE3D7E08FE45A
:1031E000E82E87E0F82E0FE217E0412C512C320137
:1031F00043946991799189919991F7018190919086
:10320000A190B1907F010E9496C9A50194010E94EE
:10321000F7C90E9434CFF801619371938193919320
:103220008F01461657066806790610F42B013C01FB
:10323000F7E0CF34DF07E9F66FEF7FEFCB01A301B3
:1032400092010E9484CD20932B0730932C0740934A
:103250002D0750932E07DF91CF911F910F91FF9073
:10326000EF90BF90AF909F908F907F906F905F9006
:103270004F9008952F923F924F925F926F927F925C
:103280008F929F92AF92BF92CF92DF92EF92FF9276
:103290000F931F93CF93DF9300D000D000D01F92E5
:1032A000CDB7DEB79A8389831B015A874987EDE939
:1032B000F1E180809180A280B38005E111E1D80125
:1032C000CD90DD90ED90FC90A50194016481758115
:1032D000868197810E94C0CD2B013C01A5019401FC
:1032E000E981FA8160817181828193810E94C0CDE0
:1032F0004B015C01A7019601D80118966D917D9153
:103300008D919C911B970E94C0CDA30192010E94B8
:10331000BBCEA50194010E94F7C9A70196010E94A6
:10332000C1CD6D837E838F839887F801C480D5805B
:10333000E680F780A5E9B1E18D919D910D90BC915A
:10334000A02D89839A83AB83BC83A70196016485F2
:103350007585868597850E94C0CDA30192010E9444
:10336000BBCEA50194010E94F7C9A70196010E9456
:10337000C1CD2D813E814F8158850E94C0CD6B010A
:103380007C0129813A814B815C8160919911709116
:103390009A1180919B1190919C110E94C0CD9B012C
:1033A000AC01C701B6010E94BBCE6B017C01298133
:1033B0003A814B815C81F1016081718182819381CD
:1033C0000E94C0CD9B01AC01C701B6010E94F7C9A4
:1033D0002D813E814F8158850E94C1CDA985BA8536
:1033E0002D913D914D915C910E94F7C92091E1068C
:1033F0003091E2064091E3065091E4060E94C1CD6F
:103400002A960FB6F894DEBF0FBECDBFDF91CF91E5
:103410001F910F91FF90EF90DF90CF90BF90AF90F2
:103420009F908F907F906F905F904F903F902F90E4
:1034300008950F931F93CF93DF930091590C109130
:103440005A0CF80142815381648175811416150666
:103450001606170634F520914E0C20FD22C020914F
:10346000DF0639B13695369541E03427832F8170D8
:1034700090E0919581959109822780719927922FEB
:1034800098279093DF068091DE068071892349F0AA
:1034900080915B0D816080935B0D90E080E00E94E5
:1034A0007D18F80186819781A085B18518161906C7
:1034B0001A061B063CF580914E0C81FF23C08091BB
:1034C000DF0699B196959695969521E09227917091
:1034D000C92FF0E0DF2FD195C195D109C827C2705F
:1034E000DD278C278093DF06C091DE06C270C823DB
:1034F00049F080915B0D826080935B0D81E090E0EC
:103500000E947D18F80182859385A485B5851816DB
:1035100019061A061B0644F580914E0C82FF24C042
:1035200080912D0D882301F12091DF0689B1082EAD
:10353000000C990B80959095990F880B982F8227F6
:1035400084709927922F98279093DF068091DE064A
:103550008470892349F080915B0D846080935B0DBA
:1035600082E090E00E947D188091DF068093DE0665
:10357000DF91CF911F910F910895CF92DF92EF923B
:10358000FF92CF93DF93EC01C090F60CD090F70C34
:10359000E090F80CF090F90CA70196016881798110
:1035A0008A819B810E9491C987FF04C0C882D98209
:1035B000EA82FB82C090FA0CD090FB0CE090FC0CED
:1035C000F090FD0CA70196016C817D818E819F8119
:1035D0000E9491C987FF04C0CC82DD82EE82FF8207
:1035E000C090FE0CD090FF0CE090000DF090010D0B
:1035F000A7019601688579858A859B850E9491C976
:1036000087FF04C0C886D986EA86FB86C09041023F
:10361000D0904202E0904302F0904402A70196014C
:10362000688179818A819B810E9421D0181624F4B7
:10363000C882D982EA82FB82C0904502D0904602BD
:10364000E0904702F0904802A70196016C817D81CD
:103650008E819F810E9421D0181624F4CC82DD82B5
:10366000EE82FF82C0904902D0904A02E0904B0265
:10367000F0904C02A7019601688579858A859B8523
:103680000E9421D0181624F4C886D986EA86FB86C3
:10369000DF91CF91FF90EF90DF90CF900895CF9280
:1036A000DF92EF92FF92C0900B02D0900C02E0905C
:1036B0000D02F0900E028091DD06882381F120E05A
:1036C00030E0A901C701B6010E9491C9882339F1F0
:1036D00020E030E040E05FE3C701B6010E94F7C997
:1036E0009B01AC010E94F7C92BED3FE049E450E497
:1036F0000E94F7C99B01AC0160E070E080E89FE3A5
:103700000E94BBCE6093190270931A0280931B0231
:1037100090931C02FF90EF90DF90CF90089560E0AF
:1037200070E080E89FE3EECFCF93DF9390E080E0FE
:103730000E94A018C8E9D6E0688379838A839B83B6
:1037400081E090E00E94A0186C837D838E839F832C
:1037500082E090E00E94A018688779878A879B871B
:10376000DF91CF91089580E1E5E0F1E1ABECB6E0C7
:1037700001900D928A95E1F7089580E1EBECF6E077
:10378000A5E0B1E101900D928A95E1F70895CF92FD
:10379000DF92EF92FF920F931F93CF93DF93EC0191
:1037A000CC0FDD1FCC0FDD1FFE01E25DF24F20E0EC
:1037B00030E0A90160817181828193810E94C1CD35
:1037C000FE01E154F94F20813181428153810E94F1
:1037D000C1CD6B017C01FE01EC59F24FC082D18258
:1037E000E282F382FE01E955FB4F25913591459127
:1037F00054918E010A50134F0E94C1CDF80160838D
:10380000718382839383FE01ED54FB4F25913591A3
:1038100045915491CF5BDD4FC701B6010E94C1CDE8
:10382000688379838A839B83DF91CF911F910F9166
:10383000FF90EF90DF90CF9008958F929F92AF927C
:10384000BF92EF92FF920F931F93CF93DF938C0160
:103850004A015B01EC01CC0FDD1FCC0FDD1FCE0157
:103860008B5F9E4E7C01C25DD24F288139814A8197
:103870005B81CB01B4010E94C0CDF7012081318171
:10388000428153810E94C1CDF7016083718382839D
:10389000938388829982AA82BB82C801DF91CF91EB
:1038A0001F910F91FF90EF90BF90AF909F908F90DE
:1038B0000C94C71B8091E0068695817008954F9205
:1038C0005F926F927F928F929F92AF92BF92CF92B0
:1038D000DF92EF92FF920F931F93CF93DF93CDB7B9
:1038E000DEB72C970FB6F894DEBF0FBECDBF8C01AC
:1038F000C090E906D090EA06E090EB06F090EC0666
:1039000020E030E0A901C701B6010E9491C98823D7
:10391000C1F020916C0D30916D0D40916E0D509164
:103920006F0DF80160857185828593850E94C0CDF9
:103930009B01AC01C701B6010E9491C918160CF099
:1039400069C00E945A1C882309F464C080E090E09A
:10395000A0E8BFE389879A87AB87BC872091680D71
:103960003091690D40916A0D50916B0DF8016481A1
:103970007581868197810E94C0CD6D837E838F8300
:1039800098872091640D3091650D4091660D50919E
:10399000670DF80160817181828193810E94C0CDA1
:1039A00069837A838B839C83AE01475F5F4FBE013F
:1039B0006B5F7F4FCE0101960E943A194B015C016B
:1039C00020916C0D30916D0D40916E0D50916F0DE9
:1039D000F80160857185828593850E94C0CDA5011F
:1039E00094010E94C0CDA70196010E94F7C92B0146
:1039F0003C01A5019401C701B6010E94C0CD9B0105
:103A0000AC01C301B2010E94BBCEF801608771878F
:103A1000828793872C960FB6F894DEBF0FBECDBF7A
:103A2000DF91CF911F910F91FF90EF90DF90CF909A
:103A3000BF90AF909F908F907F906F905F904F90CE
:103A400008954F925F926F927F928F929F92AF9262
:103A5000BF92CF92DF92EF92FF920F931F93CF937B
:103A6000DF9300D000D01F921F92CDB7DEB75C016C
:103A70004B018A014090E9065090EA066090EB06FF
:103A80007090EC0620E030E0A901C301B2010E9471
:103A900091C9882309F4A4C020916C0D30916D0D5B
:103AA00040916E0D50916F0DF8016081718182819E
:103AB00093810E94C0CD6B017C01AC019B01C301CD
:103AC000B2010E9491C918160CF073C0A7019601AB
:103AD0006091130270911402809115029091160268
:103AE0000E9491C9882321F1C0921302D09214023E
:103AF000E0921502F09216022091E5063091E6065A
:103B00004091E7065091E806C701B6010E94F7C947
:103B10009B01AC0160E070E080E89FE30E94C0CDB3
:103B200060930F027093100280931102909312021F
:103B30000E945A1C8823E9F12091680D3091690D8B
:103B400040916A0D50916B0DF40160817181828109
:103B500093810E94C0CD6D837E838F83988720914F
:103B6000640D3091650D4091660D5091670DF50122
:103B700060817181828193810E94C0CD69837A8343
:103B80008B839C834FE052E0BE016B5F7F4FCE0181
:103B900001960E943A199B01AC01F8016081718184
:103BA000828193810E94C1CDF801608371838283F9
:103BB000938328960FB6F894DEBF0FBECDBFDF917A
:103BC000CF911F910F91FF90EF90DF90CF90BF901A
:103BD000AF909F908F907F906F905F904F900895DF
:103BE00080E090E0A0E8BFE380930F029093100282
:103BF000A0931102B09312029BCFCF93DF93D82FE3
:103C00000E945A1CD81779F0C091E006D1110EC05D
:103C10004DE051E169E071E185E091E10E94211DF3
:103C2000CD7FC093E006DF91CF910895C0FFF8CF1C
:103C3000C260C093E00685E091E1DF91CF910C94E2
:103C40005F1C2FEB280F2A3168F5422F50E0FA0154
:103C500083E0F595E7958A95E1F7EE5FF94F90815E
:103C6000892F90E0277002C0959587952A95E2F7F5
:103C700080FD02C08170089548515A4FFA01808139
:103C8000882369F02091B5063091B606820F932FF4
:103C9000911D909377058093760581E0089590E0DB
:103CA00080E0F7CF80E008950E94211E882341F034
:103CB00081E02091760530917705232B09F480E08F
:103CC0000895089590E080E0089530E020E0482FC6
:103CD00050E0822FBA01022E02C0759567950A94B2
:103CE000E2F760FD06C02F5F3F4F2830310589F7AE
:103CF00088E0089580913E0D0E94651E8830B1F0E5
:103D00003FB7F894282F42E82403C00111248E5EA7
:103D1000994FFC01E058FF4F20818F579F4FFC01C6
:103D20008081281B822F8F773FBF089580E0089500
:103D300080913E0D0E94651E883001F13FB7F894D6
:103D4000282F42E82403C00111248E5E994FFC0104
:103D5000EF57FF4F2081DC01A058BF4F4C91421715
:103D600051F0820F911DDC018C9190E02F5F2F7735
:103D700020833FBF08958FEF9FEFFBCF90E080E05F
:103D800008950F931F93CF93DF93EC010E9445A0FA
:103D90000E811F8128853985011511052105310501
:103DA00079F52C85222339F1EA8521502C8721E0F1
:103DB0002E0F2A873D85231301C01A86F0E0319625
:103DC000EE0FFF1FEE0FFF1FEC0FFD1F0285138587
:103DD000248535850A831B832C833D83600F711FE7
:103DE000811D911D6E837F83888799878C819D813A
:103DF000892B09F0409ADF91CF911F910F9108957F
:103E0000601B710B820B930B97FDF5CF40981E82C0
:103E10001F8218861986EFCF0C9451A0CF92DF92A3
:103E2000EF92FF92CF936B017C010E945A1CC82F26
:103E3000C092E906D092EA06E092EB06F092EC0618
:103E40002DEB37E346E855EBC701B6010E9421D0C0
:103E500087FD0AC02DEB37E346E855E3C701B601FD
:103E60000E9491C9181674F5A701960160E070E0F0
:103E700080E89FE30E94BBCE6093E5067093E60660
:103E80008093E7069093E806CC23B1F00E94941B40
:103E900088E996E00E945F1C8091A0069091A1069F
:103EA000A091A206B091A30680930D1190930E11DC
:103EB000A0930F11B0931011CF91FF90EF90DF906E
:103EC000CF90089560E070E0CB01D6CFDF92EF9203
:103ED000FF920F931F93CF93DF93EC01D62E1CAD6F
:103EE0000BAD7C0184E0E80EF11CE98DFA8DC70171
:103EF0001995412F480F2D2D602FC7010E94C8A78B
:103F00009BAD890F8BAF81E090E0DF91CF911F9146
:103F10000F91FF90EF90DF9008954F925F926F9214
:103F20007F92AF92BF92CF92DF92EF92FF920F9368
:103F30001F93CF93DF938C01EB01FC0147A050A4AA
:103F400061A472A4AFA0B8A4C9A4DAA49501A60183
:103F5000C301B2010E9491C987FF3EC0A301920133
:103F6000C301B2010E94F7C92B013C01F80163A90A
:103F700074A985A996A990589B01AC010E94C1CD56
:103F8000F80127A530A941A952A90E94F7C99B01B0
:103F9000AC01C301B2010E94C0CD0E946FD07B0171
:103FA0008C019B01AC01B501C6010E9491C987FF3C
:103FB00002C0750186019701A801B501C6010E94E2
:103FC00091C9882349F0C701D8018FA398A7A9A751
:103FD000BAA7888181608883DF91CF911F910F916B
:103FE000FF90EF90DF90CF90BF90AF907F906F9059
:103FF0005F904F9008954F925F926F927F928F9251
:104000009F92AF92BF92CF92DF92EF92FF92CF93A7
:10401000DF93CDB7DEB76A970FB6F894DEBF0FBE59
:10402000CDBF9A8F898F5B014A01DC01D7966D91D4
:104030007D918D919C91DA970E9496C96B017C01CC
:10404000F50120813181428153810E94F7C90E948C
:104050009FCE0E9434CF3B015C01D4012D913D9154
:104060004D915C91C701B6010E94F7C90E949FCE95
:104070000E9434CF6D827E82AF82B8862D813E81D0
:104080004F815885283731054105510540F428E70F
:1040900030E040E050E02D833E834F8358876983B2
:1040A0007A838B839C8389819A81AB81BC81883799
:1040B0009105A105B10540F428E730E040E050E06B
:1040C00029833A834B835C83E98DFA8DED5BFF4F47
:1040D00080819181A281B3818D879E87AF87B88BC4
:1040E000BC01CD010E9498C969877A878B879C871C
:1040F0006D817E818F8198850E9496C9698B7A8BAC
:104100008B8B9C8B20E030E0A90169857A858B85BB
:104110009C850E9491C9882309F432C1A7019601A8
:10412000C701B6010E94F7C94B015C0129893A8990
:104130004B895C89CA01B9010E94F7C99B01AC0196
:10414000C501B4010E94C0CD4B015C0129853A85AF
:104150004B855C85CA01B9010E94C1CD9B01AC01B0
:10416000C501B4010E94BBCE0E949FCE0E942DCFFC
:104170002B013C016D857E858F8598899095809572
:10418000709561957F4F8F4F9F4F0E9498C94B014B
:104190005C0169817A818B819C810E9496C96D87BF
:1041A0007E878F87988B20E030E0A901C501B4019C
:1041B0000E9491C9882309F4E7C02D853E854F856B
:1041C0005889CA01B9010E94F7C96D8B7E8B8F8B0C
:1041D000988FA7019601C701B6010E94F7C99B01FC
:1041E000AC016D897E898F89988D0E94C0CD6B014D
:1041F0007C01A5019401C501B4010E94C1CD9B01C0
:10420000AC01C701B6010E94BBCE0E9463CFA98D4D
:10421000BA8D52968D909D90AD90BC90559775013A
:104220006401C418D508E608F7080E942DCFC61A05
:10423000D70AE80AF90AF7FE67C020E030E0A901D2
:1042400069857A858B859C850E9491C9882309F4AC
:104250009FC0C501B4010E9496C96B017C012985EC
:104260003A854B855C85CA01B9010E94C1CD9B018D
:10427000AC01C701B6010E94F7C96B017C01298915
:104280003A894B895C89CA01B9010E94F7C99B012F
:10429000AC01C701B6010E94C0CD6B017C012D8528
:1042A0003E854F855889CA01B9010E94F7C99B0113
:1042B000AC01C701B6010E94C1CD6B017C0120E0B9
:1042C00030E040E850E469857A858B859C850E94C2
:1042D000F7C99B01AC01C701B6010E94BBCE0E9489
:1042E0009FCE0E942DCF2B013C0177FE03C0412CB5
:1042F000512C3201481459046A047B0410F0240143
:104300003501C12CD12C76018FB7F894E98DFA8D47
:10431000908193FD1FC0DF01468A578A608E718E9F
:10432000C40CD51CE61CF71CC28ED38EE48EF58E11
:104330002D813E814F81588523AF34AF45AF56AFB5
:10434000DF9629813A814B815C812D933D934D937A
:104350005C9313978FBF6A960FB6F894DEBF0FBEBB
:10436000CDBFDF91CF91FF90EF90DF90CF90BF90C6
:10437000AF909F908F907F906F905F904F90089537
:1043800060E070E0CB01F0CE60E070E0CB013DCFAB
:1043900060E070E0CB01A3CFAF92BF92CF92DF92EB
:1043A000EF92FF920F931F93CF93DF931F92CDB79E
:1043B000DEB76C018B0159018091DB0681111BC0B6
:1043C0007B01E40EF51EF601808191810E945ECD95
:1043D0008983F80181938F01BE016F5F7F4FC50113
:1043E0000E946C9DF601808191810196918380836A
:1043F000E016F10641F70F90DF91CF911F910F91D9
:10440000FF90EF90DF90CF90BF90AF900895809194
:10441000760590917705009731F04AE050E070E022
:1044200060E00C94E6C660E070E0CB0108950E9465
:10443000072297FD0CC00E9407226F3F710581057E
:10444000910509F034F40E940722862F089580E038
:1044500008958FEF08958091760590917705892BC7
:1044600041F00E94172291E0811101C090E0892F54
:10447000089591E0FCCF80917605909177050097A3
:1044800031F04AE050E070E060E00C9414C860E065
:1044900070E0CB0108950F931F93CF938091760521
:1044A000909177050097E9F0FC018F01C1912C2FC5
:1044B0002F7D81F0C53411F0C536B9F7F8011082AF
:1044C00070E060E00E9488C5F801C083CF911F9121
:1044D0000F91089570E060E0CF911F910F910C94BF
:1044E00088C560E070E0CB01F1CF86E40E94211E18
:1044F00080938B0C882351F00E944B2260932502FD
:1045000070932602809327029093280283E50E94ED
:10451000211E882351F00E944B2260932102709348
:104520002202809323029093240282E40E94211E9F
:10453000882351F00E944B2260931D0270931E024B
:1045400080931F02909320020895CF92DF92EF9202
:10455000FF920F931F93CF93DF938DEDC82E82E0D0
:10456000D82E9BECE92E96E0F92E05E011E1D0E083
:10457000C0E0F60181916F010E94211E882309F499
:104580004EC00E944B229B01AC01FE01E65FF94F39
:104590008081811104C080910E068823E1F1F80129
:1045A00060817181828193810E94C1CDF701608316
:1045B0007183828393832196F4E0EF0EF11C0C5FEC
:1045C0001F4FC430D105A9F686E40E94541E8823EB
:1045D000C9F00E944B2220E030E0A9010E9421D0C6
:1045E000181684F40E944B2220E030E040E752E4A9
:1045F0000E94BBCE60930202709303028093040278
:1046000090930502DF91CF911F910F91FF90EF9052
:10461000DF90CF90089560E070E0CB01C5CFF80146
:1046200080819181A281B381F70180839183A283EC
:10463000B383C1CF40E050E0BA018FE396E20C941F
:10464000269CCF92DF92EF92FF92CF93C82F0E94C9
:1046500045A06B017C0124EA30E74DE75FE3609100
:10466000020D7091030D8091040D9091050D0E9433
:1046700091C987FD18C08AEF90E0A0E0B0E08C0DF2
:104680009D1DAE1DBF1D8093190D90931A0DA09313
:104690001B0DB0931C0DC0935A02CF91FF90EF9069
:1046A000DF90CF90089580E090E0DC01E8CFE091CA
:1046B000710DEE2389F0E150E093710D86E0E89FE3
:1046C000F0011124ED55F34F4281538164817581CE
:1046D000808191810C94269C0C941A238091710DF9
:1046E0008A30D8F496E0899FF0011124ED55F34FFC
:1046F0002091620230916302318320834091720DD8
:104700005091730D6091740D7091750D42835383B8
:10471000648375838F5F8093710D08959CE0899FFA
:10472000802D112491E0980F90935E0D2CE0280FBE
:1047300020935F0D4091691130E02E5F3F4F42178B
:10474000130609F0C4F420916B119217A0F46623AC
:1047500099F091E09093551163E0680F2BE040E8E9
:1047600080E00E9457A51092551180915F0D109224
:104770006C1180936D11089581E080935511F5CFF0
:10478000DF92EF92FF920F931F93CF93DF931F92CD
:10479000CDB7DEB7809107018860809307019FB78E
:1047A000F894809108018860809308019FBF0D9A5A
:1047B00015988FE19EE40197F1F700C000000D9A73
:1047C000159A8FE19EE40197F1F700C0000011E017
:1047D00010936E110E9405A4F090A10C80916E11AF
:1047E000811104C010936E110E9405A460913711CD
:1047F00070913811F9829E012F5F3F4F4FE085E3A2
:1048000091E10E94A0A380913502882309F44DC054
:104810001092350280913511282F2058330BB901A1
:1048200037FF02C06F5F7F4F75956795F62EE82EB4
:10483000E69480916E11811105C081E080936E1124
:104840000E9405A480913711909138110E94DEA337
:1048500084E0D82E00E420E840E06F2D85E391E16C
:104860000E9435A5882341F001E01BE120E440E1EE
:1048700060E08F2D0E946BA484EE95E20E94819CE3
:10488000D092250D10913511169560913611625117
:104890008E2D0E94C4A8609136116650812F0E940F
:1048A000C4A80E94A4A38111D5CF0F90DF91CF910E
:1048B0001F910F91FF90EF90DF9008959FEF980F59
:1048C000993020F40E9432B381E008950E94829DC5
:1048D000FBCF9FEF980F993010F40C9432B30C94E7
:1048E000829DCF93DF93EC01FE018491882321F018
:1048F0000E9469242196F8CFDF91CF910895CF933C
:10490000DF93EC018991882319F00E946924FACF82
:10491000DF91CF9108951F93CF93DF931092210DD4
:104920008091720D9091730DA091740DB091750DE1
:1049300081309048A105B10540F01092720D10929F
:10494000730D1092740D1092750D6091720D70912F
:10495000730D8091740D9091750D25E030E040E06D
:1049600050E00E9484CDC22F8091E60C1816F4F41A
:10497000482F082E000C550B41505109022E000CF7
:10498000330B2417350794F0CFEFC80F25E0C29FF3
:10499000C0011124092E000CAA0BBB0B8093720DD1
:1049A0009093730DA093740DB093750D1092700DCC
:1049B00080910A0DC81714F4C0930A0D80910A0D56
:1049C000082E000C990B04962C2F0C2E000C330B88
:1049D0008217930724F48CEF8C0F80930A0DD091EB
:1049E0000A0D15E01D0F80916102D11140C088238E
:1049F00049F081E0C11180E020E249EE5FE162E030
:104A00000E9490A98091220D811125C0DF5FD113F2
:104A1000EACF82E08093E60C80916102882319F14D
:104A200081E08093551110926C118CE080936D1190
:104A30008BE193E00E947F2484E30E94692410921A
:104A40006C1188E180936D1189E293E0DF91CF9141
:104A50001F910C947F24C111D9CF0E941A238091F9
:104A6000700D882399F2DF91CF911F910895D13075
:104A700069F6882351F081E0C13009F080E023E03D
:104A800047ED5FE163E00E9490A98091220D8823A9
:104A900009F4BCCFC13009F0B9CF40E050E0BA0111
:104AA00084E791EB0E94269CDACF0F931F93CF935C
:104AB000DF931092210D8091720D9091730DA09152
:104AC000740DB091750D81309048A105B10540F08D
:104AD0001092720D1092730D1092740D1092750D4C
:104AE0006091720D7091730D8091740D9091750DA0
:104AF00025E030E040E050E00E9484CDC22F80915C
:104B0000E70C1816F4F4482F082E000C550B4150F2
:104B10005109022E000C330B2417350794F0CFEF08
:104B2000C80F25E0C29FC0011124092E000CAA0B5A
:104B3000BB0B8093720D9093730DA093740DB09383
:104B4000750D1092700D80910A0DC81714F4C09362
:104B50000A0D80910A0D082E000C990B04962C2F3B
:104B60000C2E000C330B8217930724F48CEF8C0F60
:104B700080930A0DD0910A0D15E01D0F0D2F0195A0
:104B800080916102D1114CC0882349F081E0C111AC
:104B900080E024E04DE050E2602F0E9490A98091D7
:104BA000220D811130C0DF5F1D13EACF82E08093B8
:104BB000E70C80916102882371F181E080935511A7
:104BC00010926C1188E180936D118CE393E00E9448
:104BD0007F2410926C1184E280936D112091E80C77
:104BE000822F90E08A309105F4F580E3820F0E94D5
:104BF00069248FE20E94692484E3DF91CF911F91A1
:104C00000F910C946924C111CECF0E94572380913B
:104C1000700D882341F2DF91CF911F910F9108957C
:104C2000D13009F6882351F081E0C13009F080E0ED
:104C300023E04BEF5FE163E00E9490A98091220D99
:104C4000882309F4B0CFC13009F0ADCF4091720D87
:104C50005091730D6091740D7091750D80EA94E719
:104C60000E94269CD4CF6AE070E00E94F5D0C82F45
:104C700080E3860F0E94692480E38C0FB8CF4F92A7
:104C80005F926F927F928F929F92AF92BF92CF92DC
:104C9000DF92EF92FF920F931F93CF93DF9300D099
:104CA00000D000D01F92CDB7DEB71092210D0E9428
:104CB00045A00091E00C1091E10C2091E20C3091A4
:104CC000E30C6B017C01C01AD10AE20AF30A9701D6
:104CD000860137FD11C02091DF0C20952093DF0C59
:104CE0006A547C4F8F4F9F4F6093E00C7093E10CA0
:104CF0008093E20C9093E30C1091DF0C0E942AB396
:104D000080916911813208F5112351F08091F40CE2
:104D10009091F50C7CE3E72E7FE1F72E892B21F4AF
:104D200064E2E62E6FE1F62E0CE020E144E16EE64F
:104D300085E391E10E9435A5882339F087012CE0B5
:104D400042E064E18EE60E946BA480916911843197
:104D5000D8F580916B118730B8F160912B1170916B
:104D60002C11072E000C880B990B0E9498C920E08B
:104D700030E040E05FE30E94C1CD0E942DCF42E1D0
:104D8000643671052CF44CE06A3071050CF446E091
:104D900022E130E0241B310937FF02C02F5F3F4F73
:104DA00035952795319521953109285920936C1116
:104DB00023E120936D11CB010E94CDA80E947F2496
:104DC00081E29FE10E947124809169118932C8F5C6
:104DD00080916B118132A8F120E030E040E05FE388
:104DE00060912D1170912E1180912F1190913011A1
:104DF0000E94C1CD0E942DCF42E1643671052CF492
:104E00004CE06A3071050CF446E022E130E0241BEE
:104E1000310937FF02C02F5F3F4F359527953195F8
:104E200021953109285920936C1128E220936D11A6
:104E3000CB010E94CDA80E947F2481E29FE10E94C5
:104E4000712480916911813230F580916B118D311F
:104E500010F160912B1170912C11072E000C880B12
:104E6000990B0E9498C920912D1130912E114091DB
:104E70002F11509130110E9421D018160CF0D0C182
:104E80001092551122E042E06DE182E70E9457A5A1
:104E900081E08093551110926C1181E380936D1124
:104EA0008EE493E00E94BF9D27E048E064E382E047
:104EB0000E9457A525E042E066E38AE00E9457A5DC
:104EC0006AE082E00E94A0A76091371170913811CA
:104ED0008AE08093511185E38093521121E531E1FD
:104EE00042E385E391E10E94A0A3809169118F3391
:104EF00040F480916B118B3320F060E58EE00E94CE
:104F0000A0A78091D311882309F489C080916911E9
:104F10008E3308F045C080916B118C3308F440C08B
:104F20008091A113882309F482C180914B14909140
:104F30004C14A0914D14B0914E140097A105B105E9
:104F400009F475C1BC01CD016D597F4F8F4F9F4F43
:104F500024E630E040E050E00E9484CD60914F14A0
:104F60007091501480915114909152140E9484CDEC
:104F70008EE4289FB0011124072E000C880B990B9A
:104F80000E9498C92AE037ED43E25CE30E94F7C92A
:104F90000E9434CF462F22E06CE38FE00E9457A599
:104FA000809169118B33D8F580916B118333B8F1FF
:104FB00082E380936C118AE380936D118091A11339
:104FC000882309F436C180914B1490914C14A09120
:104FD0004D14B0914E140097A105B10509F429C1F3
:104FE000BC01CD016D597F4F8F4F9F4F24E630E0BC
:104FF00040E050E00E9484CD60914F1470915014B5
:1050000080915114909152140E9484CD822F90E08F
:105010000E94CDA80E94BF9D85E20E94829D809142
:105020006911813208F062C080916B118E3008F4F2
:105030005DC00E94E2A24B015C0120E13EE040E045
:1050400050E00E9484CDD22EC32E022F132F9CE35A
:10505000492E512C612C712CC501B401A301920180
:105060000E9484CDCA01B901A30192010E9484CD9E
:10507000FE0131967F01F1E88F16F1E59F06F1E020
:10508000AF06B10408F4D7C07F936F93C80168E1FD
:1050900070E00E94E1D09F938F93C501B40120E896
:1050A00031E541E050E00E9484CD3F932F9383E1AE
:1050B0009FE19F938F93FF92EF920E9461C90FB679
:1050C000F894DEBF0FBECDBF10926C1185E18093C6
:1050D0006D1187E593E00E947F248FE080936C112F
:1050E00080E280936D11C7010E947F248091691135
:1050F0008E3308F580916B118C32E8F00E942AB350
:105100008FE580936C1182E380936D1184E693E0C8
:105110000E94BF9D84E680936C118DE380936D1196
:1051200080913702909138020E94CDA80E947F247E
:1051300085E20E94829D809169118930C8F4809136
:105140006B118823A9F010926C1188E080936D1187
:1051500004E612E08AE7E82E82E0F82EF801819159
:105160008F01882329F00E94829DE016F106B1F795
:105170008091220D882339F040E050E0BA018DE0A3
:1051800092E60E94269C4091720D5091730D6091A1
:10519000740D7091750D2091370230913802C9015C
:1051A000840F951F243631050CF061C085369105BA
:1051B0000CF064C090933802809337021092720D05
:1051C0001092730D1092740D1092750D809137022C
:1051D00090913802883E23E0920714F087EE93E026
:1051E0008A30910514F48AE090E09093380280931D
:1051F00037022A960FB6F894DEBF0FBECDBFDF91FF
:10520000CF911F910F91FF90EF90DF90CF90BF90C3
:10521000AF909F908F907F906F905F904F90089588
:1052200022E042E06DE182E70E9457A534CE20E003
:105230009FCE20E0EBCE0436110590F47F936F9360
:10524000C80168E170E00E94E1D09F938F9389E0EC
:105250009FE19F938F93FF92EF920E9461C92FCF9E
:105260007F936F93CF92DF9281E09FE1F2CF24365C
:10527000310539F0843691050CF09CCF84E690E03E
:1052800099CF4B3051056105710514F00A9792CF03
:10529000463F5F4F6F4F7F4F0CF098CF0A968ACFF3
:1052A000AF92BF92CF92DF92EF92FF920F931F9334
:1052B000CF93DF935C017B0130E020E0F501E20F4A
:1052C000F31FE491E11154C0F701AF014E195F09DA
:1052D00081918111FACF04E110E0041B1109DD2452
:1052E000D3942017110619F014F082E0D82E809183
:1052F000361190E06D2D70E06F5F7F4F0E94F5D00A
:10530000C62EC6E0C60F80916911C817A0F1209182
:105310006B114C2F4B50550B2417150664F110924E
:105320006C11C0936D11C5010E947124D1E0E1148C
:10533000F10499F08AE30E94829D52E0D5121DC0CB
:10534000CC0D80916911C81740F020916B114C2F42
:105350004B50550B2417150694F4DF91CF911F91F4
:105360000F91FF90EF90DF90CF90BF90AF90089596
:105370002F5F3F4FA3CFD0E0DACFDD2371F3802F33
:10538000880F800F880F80936C11C0936D1180E29D
:105390000E94829DC701DF91CF911F910F91FF90D5
:1053A000EF90DF90CF90BF90AF900C947F244F92FE
:1053B0005F926F927F92AF92BF92CF92DF92EF9205
:1053C000FF920F931F93CF93DF9324E030E041E0EF
:1053D00050E0D901A752BD4FFD0165917491861728
:1053E00097070CF066C041505109440F551F440FF8
:1053F000551FEA01C552DD4FFE0105911491475238
:105400005D4FFA0165917491F901E552FD4FE59008
:10541000F490FE01C590D490FD01C591D491FA019C
:10542000A590B490861B970BBC01990F880B990B24
:105430000E9498C92B013C01B7016C197D09072E08
:10544000000C880B990B0E9498C99B01AC01C30109
:10545000B2010E94F7C96B017C01BE016A197B0988
:10546000072E000C880B990B0E9498C99B01AC0178
:10547000C701B6010E94BBCE6B017C01B801110FC0
:10548000880B990B0E9498C99B01AC01C701B6011A
:105490000E94C1CDDF91CF911F910F91FF90EF90AE
:1054A000DF90CF90BF90AF907F906F905F904F90C4
:1054B00008954F5F5F4F2C5F3F4F2C35310509F04A
:1054C00088CFE3E3F3E065917491072E000C880B1D
:1054D000990B0E9498C9DECF80918C0C90918D0C15
:1054E0000E94D72960932D1170932E1180932F1154
:1054F00090933011A8958FB7F8941092900C8FBFAD
:10550000089580914E0C80FF1DC0119A8FEF8093FB
:105510002B0280914E0C81FF18C014988FEF80935E
:105520002C0280914E0C82FF13C0A2988FEF8093C3
:105530002D0280914E0C83FF0EC08A9A8FEF8093CC
:105540002E020895119881E0E2CF149A81E0E7CF0E
:10555000A29A81E0ECCF8A9881E0F1CF1092E00628
:105560001092E1061092E2061092E3061092E40611
:10557000E5E1F1E180E1DF011D928A95E9F7089507
:1055800080E00E94FD1D8091E00680FF07C00E9420
:10559000AE2A8091E0068E7F8093E0060895FC019C
:1055A00020E03EE2DB014D91BD01403249F0283060
:1055B00011F430833196DB0111974C914083319681
:1055C0002F5F2B3079F71082089561E0FC01808114
:1055D0000C947E9E8EBD0DB407FEFDCF08958FEF17
:1055E0008EBD0DB407FEFDCF8EB508958F929F92AC
:1055F000AF92BF92EF92FF920F931F93CF937C01D4
:10560000C62F49015A01FC019281892F806A869533
:105610008CBD90FD03C081E0963009F480E08DBD23
:1056200060E0F70180810E947E9E8CE291E00E9402
:105630009BA08C2F80640E94EA2A08E110E0D5012B
:10564000C401002E04C0B695A795979587950A9436
:10565000D2F70E94EA2A08501109083FFFEF1F07FE
:1056600071F785E9CC2321F087E8C83009F08FEF86
:105670000E94EA2ACC3011F40E94EF2AC0E00E9476
:10568000EF2AF701838387FF04C0CF3F11F0CF5F7C
:10569000F6CFCF911F910F91FF90EF90BF90AF90F9
:1056A0009F908F9008950F931F93CF93DF93EC01FA
:1056B00089018C81833039F089E0440F551F661FC2
:1056C000771F8A95D1F79A01AB0168E1CE010E945C
:1056D000F62A882319F086E089833AC08EEF8EBDC2
:1056E000F801C8019E5F0DB407FEFDCF20812EBDDD
:1056F0000DB407FEFDCF21812EBD3296E817F907C4
:1057000091F70DB407FEFDCF8FEF0E94EA2A8FEFCD
:105710000E94EA2A0E94EF2A8B838F71853099F4C8
:1057200088E592E00E949BA0182F87E11123A1F247
:1057300020E030E0A9016DE0CE010E94F62A882326
:1057400061F086E1C9CF83E18983CE010E94E52A19
:10575000CE010E94E52A10E007C00E94EF2A8111C5
:10576000F0CFCE010E94E52A812FDF91CF911F91CA
:105770000F910895CF9380917E0FC1E08823A1F00F
:105780004091760F5091770F6091780F7091790F5B
:1057900026E73DE080917F0F9091800F0E94532B70
:1057A000C82F811104C0C0E08C2FCF910895409183
:1057B0007A0F50917B0F60917C0F70917D0F411596
:1057C00051056105710591F026E73DE080917F0F5D
:1057D0009091800F0E94532B882329F310927A0F07
:1057E00010927B0F10927C0F10927D0F10927E0F03
:1057F000DBCFEF92FF920F931F93CF93DF93EC01D8
:1058000079018C81833039F089E0440F551F661F80
:10581000771F8A95D1F79A01AB0161E1CE010E9411
:10582000F62A882339F084E08983CE010E94E52A94
:1058300080E03BC00E9445A08B010E94EF2A8B8331
:105840008F3F81F40E9445A0601B710B6D32714047
:10585000A0F381E18983CE010E94E52A8FEF0E94A7
:10586000EA2AE6CF8E3F11F08FE0F4CF8FEF8EBDA6
:10587000F701D701A150BE4F0DB407FEFDCF9EB575
:1058800091938EBDAE17BF07B9F70DB407FEFDCFDC
:105890008EB58C930E94EF2A0E94EF2ACE010E94BF
:1058A000E52A8FEF0E94EA2A81E0DF91CF911F91D4
:1058B0000F91FF90EF900895CF92DF92EF92FF92B9
:1058C000CF936B017C01C42F8091760F9091770F5D
:1058D000A091780FB091790F8C159D05AE05BF058D
:1058E00001F10E94BA2B811108C0C0E08C2FCF912A
:1058F000FF90EF90DF90CF90089526E73DE0B7014D
:10590000A60180917F0F9091800F0E94F92B882330
:1059100061F3C092760FD092770FE092780FF092F9
:10592000790FCC2321F081E080937E0FDFCFC1E09F
:10593000DDCF4F925F926F927F928F929F92AF9244
:10594000BF92CF92DF92EF92FF920F931F93CF936C
:10595000DF93EC01423051056105710590F480E060
:10596000DF91CF911F910F91FF90EF90DF90CF903B
:10597000BF90AF909F908F907F906F905F904F906F
:10598000089589859A85AB85BC850196A11DB11DB9
:1059900084179507A607B70710F38F898031C9F5DB
:1059A000852E962EA72EBB248B899C89AD89BE8916
:1059B000880E991EAA1EBB1E280139016A017B01AF
:1059C00041E0C501B4010E945C2C882341F29F890B
:1059D000903181F5DD24EE24FF24F601EE0FFF1F48
:1059E000EA58F24F118300839A89923008F4B8CFB5
:1059F0004D815E816F817885840E951EA61EB71E2F
:105A000080927A0F90927B0FA0927C0FB0927D0FC4
:105A1000A7CF803209F0A3CF8B899C89AD89BE893D
:105A20004A015B01E7E0B694A79497948794EA95BE
:105A3000D1F7BECFE894C7F8DD24EE24FF24F601A9
:105A4000EE0FFF1FEE0FFF1FEA58F24F4082518208
:105A500062827382C9CFCF92DF92EF92FF920F934F
:105A60001F93CF93DF93FC0181859285A385B48535
:105A70000196A11DB11D84179507A607B70750F41D
:105A800080E0DF91CF911F910F91FF90EF90DF9019
:105A9000CF90089587898031A9F5BB27A72F962F2E
:105AA000852FC388D488E588F6888C0D9D1DAE1D92
:105AB000BF1DE9016A017B018F014091760F509172
:105AC000770F6091780F7091790F84179507A6076B
:105AD000B70749F5F8018789803169F5B701A60153
